:100000000C942A000C9447000C9447000C94470071
:100010000C9447000C9447000C9447000C94470044
:100020000C9447000C9447000C9447000C94FC0679
:100030000C9447000C9447000C9447000C94470024
:100040000C9420070C9447000C9447000C94470034
:100050000C94470011241FBECFE5D8E0DEBFCDBF12
:1000600011E0A0E6B0E0ECE8F8E302C005900D92E4
:10007000A43AB107D9F711E0A4EAB1E001C01D929A
:10008000A03EB107E1F70E94AC180C94441C0C94FC
:100090000000A0E0B0E0EFE4F0E00C945119DC01C6
:1000A0002B01FA019C91923008F439C1EB0188814F
:1000B000823008F433C1943069F4843009F02FC1E0
:1000C00011969C9111978981981709F428C1AFE680
:1000D000B0E025C1843009F421C18230A9F4923006
:1000E00009F01DC19A01AD0188E0EA010990AE0155
:1000F000E90109929E018150C1F7E20189811196BF
:100100009C918923818308C1923009F407C112961A
:100110002D903C901397EB018A819B811496AD90B2
:10012000BD90CD90DC901797EC80FD800E811F81F3
:100130009101281B390BB90137FF04C066277727C7
:10014000621B730B603271050CF061C0121613064E
:100150006CF537014801062E04C096948794779475
:1001600067940A94D2F721E030E040E050E004C008
:10017000220F331F441F551F6A95D2F7215030407C
:10018000404050402E213F2140235123211531056D
:100190004105510521F021E030E040E050E07901D7
:1001A0008A01E628F728082919293CC0232BD1F118
:1001B000260E371E35014601062E04C096948794FC
:1001C000779467940A94D2F721E030E040E050E061
:1001D00004C0220F331F441F551F6A95D2F72150C8
:1001E0003040404050402A213B214C215D212115C7
:1001F00031054105510521F021E030E040E050E0BB
:1002000059016A01A628B728C828D9280BC0821529
:1002100093052CF01C01AA24BB24650103C0EE2425
:10022000FF24870111969C91D20111968C91981709
:1002300009F445C0992339F0A80197012A193B090F
:100240004C095D0906C0A60195012E193F09400B16
:10025000510B57FD08C011823382228224833583DB
:10026000468357831DC081E08183338222828827A1
:100270009927DC01821B930BA40BB50B8483958318
:10028000A683B7830DC0220F331F441F551F24833D
:100290003583468357838281938101979383828339
:1002A0002481358146815781DA01C9010197A1096D
:1002B000B1098F5F9F4FAF4FBF4328F30BC09183AE
:1002C00033822282EA0CFB1C0C1D1D1DE482F58288
:1002D0000683178383E0808324813581468157819B
:1002E00057FF1AC0C901AA2797FDA095BA2F8170A0
:1002F0009070A070B0705695479537952795822BD2
:10030000932BA42BB52B84839583A683B7838281FB
:100310009381019693838283DF0101C0D201CD01D5
:10032000CDB7DEB7E2E10C946D19A0E2B0E0EBE9E5
:10033000F1E00C945D1969837A838B839C832D8310
:100340003E834F835887E9E0EE2EF12CEC0EFD1E24
:10035000CE010196B7010E94C3048E010F5E1F4FAC
:10036000CE010596B8010E94C3048A8991E08927CD
:100370008A8BC701B801AE01475E5F4F0E944900FA
:100380000E94EE03A096E6E00C947919A0E2B0E09A
:10039000ECECF1E00C945D1969837A838B839C8388
:1003A0002D833E834F835887F9E0EF2EF12CEC0E1E
:1003B000FD1ECE010196B7010E94C3048E010F5E9F
:1003C0001F4FCE010596B8010E94C304C701B801B2
:1003D000AE01475E5F4F0E9449000E94EE03A09667
:1003E000E6E00C947919A0E2B0E0E9EFF1E00C94BA
:1003F000511969837A838B839C832D833E834F833A
:100400005887CE010196BE01675F7F4F0E94C304EB
:10041000CE010596BE016F5E7F4F0E94C304998591
:10042000923088F089898230C8F0943019F4823093
:1004300051F404C0843029F4923081F48FE690E0C6
:10044000C6C0923049F420E09A858A89981321E049
:100450002A87CE010996BBC0823049F420E09A85F4
:100460008A89981321E02A8BCE014196B0C02D8451
:100470003E844F8458886D887E888F88988CEE24BF
:10048000FF248701AA24BB24650140E050E060E01E
:1004900070E0E0E0F0E0C10181709070892BE9F03C
:1004A000E60CF71C081D191D9A01AB012A0D3B1D16
:1004B0004C1D5D1D80E090E0A0E0B0E0E614F70484
:1004C0000805190520F481E090E0A0E0B0E0BA0151
:1004D000A901480F591F6A1F7B1FAA0CBB1CCC1C0B
:1004E000DD1C97FE08C081E090E0A0E0B0E0A82A03
:1004F000B92ACA2ADB2A3196E032F10549F0660CA6
:10050000771C881C991C5694479437942794C3CF22
:10051000FA85EA892B893C898B859C85280F391FB0
:100520002E5F3F4F17C0CA0181709070892B61F018
:1005300016950795F794E79480E090E0A0E0B0E886
:10054000E82AF92A0A2B1B2B76956795579547952C
:100550002F5F3F4F77FDE7CF0CC0440F551F661F3D
:10056000771F17FD4160EE0CFF1C001F111F21506B
:100570003040403090E0590790E0690790E47907F7
:1005800060F32B8F3C8FDB01CA018F779070A070D6
:10059000B07080349105A105B10561F447FD0AC032
:1005A000E114F1040105110529F0405C5F4F6F4F24
:1005B0007F4F40781A8EFE1711F081E08A8F4D8FA1
:1005C0005E8F6F8F78A383E0898FCE0149960E945A
:1005D000EE03A096E2E10C946D19A8E0B0E0E3EF21
:1005E000F2E00C945A199B01AC0183E08983DA0193
:1005F000C9018827B7FD83959927AA27BB27B82E5D
:10060000211531054105510519F482E089833AC06D
:100610008823A9F0203080E0380780E0480780E890
:10062000580729F460E070E080E09FEC30C0EE24D1
:10063000FF248701E21AF30A040B150B02C07901AB
:100640008A018EE1C82ED12CDC82CB82ED82FE8223
:100650000F831887C801B7010E949F0301971816DE
:10066000190684F4082E04C0EE0CFF1C001F111F95
:100670000A94D2F7ED82FE820F831887C81AD90A2E
:10068000DC82CB82BA82CE0101960E94EE032896CC
:10069000E9E00C947619ACE0B0E0E1E5F3E00C940D
:1006A000611969837A838B839C83CE010196BE0195
:1006B0006B5F7F4F0E94C3048D81823061F1823075
:1006C00050F1843021F48E81882351F12EC02F8186
:1006D000388537FD20C06E812F3131051CF066232F
:1006E000F9F023C08EE190E0821B930B29853A85B7
:1006F0004B855C8504C056954795379527958A9517
:10070000D2F76623B1F050954095309521953F4F33
:100710004F4F5F4F0EC020E030E040E050E009C096
:100720002FEF3FEF4FEF5FE704C020E030E040E005
:1007300050E8B901CA012C96E2E00C947D19EF92C1
:10074000FF920F931F937B018C0180E0E81680E0FD
:10075000F80681E0080780E0180788F48FEFE816B4
:10076000F1040105110531F028F088E090E0A0E0E7
:10077000B0E017C080E090E0A0E0B0E012C080E000
:10078000E81680E0F80680E0080781E0180728F006
:1007900088E190E0A0E0B0E004C080E190E0A0E05B
:1007A000B0E020E230E040E050E0281B390B4A0B7B
:1007B0005B0B04C016950795F794E7948A95D2F7DA
:1007C000F701E958FF4F8081281B31094109510980
:1007D000C9011F910F91FF90EF900895DF92EF9262
:1007E000FF920F931F93FC01E480F580068117812F
:1007F000D1808081823048F480E090E0A0E1B0E0D8
:10080000E82AF92A0A2B1B2BA5C0843009F49FC0C3
:10081000823021F4EE24FF24870105C0E114F104A5
:100820000105110519F4E0E0F0E096C062817381E2
:100830009FEF623879070CF05BC022E83FEF261B80
:10084000370B2A3131052CF020E030E040E050E059
:100850002AC0B801A701022E04C076956795579566
:1008600047950A94D2F781E090E0A0E0B0E004C0A0
:10087000880F991FAA1FBB1F2A95D2F70197A109BC
:10088000B1098E219F21A023B1230097A105B105B5
:1008900021F081E090E0A0E0B0E09A01AB01282BCC
:1008A000392B4A2B5B2BDA01C9018F779070A0702E
:1008B000B07080349105A105B10539F427FF09C056
:1008C000205C3F4F4F4F5F4F04C0215C3F4F4F4F65
:1008D0005F4FE0E0F0E02030A0E03A07A0E04A07F8
:1008E000A0E45A0710F0E1E0F0E079018A0127C0A6
:1008F0006038710564F5FB01E158FF4FD801C7016D
:100900008F779070A070B07080349105A105B1050B
:1009100039F4E7FE0DC080E490E0A0E0B0E004C050
:100920008FE390E0A0E0B0E0E80EF91E0A1F1B1F65
:1009300017FF05C016950795F794E794319687E061
:1009400016950795F794E7948A95D1F705C0EE249C
:10095000FF248701EFEFF0E06E2F6795662767951C
:10096000902F9F77D794DD24D7948E2F8695492F8B
:10097000462B582F5D29B701CA011F910F91FF9097
:10098000EF90DF900895FC01DB01408151812281CD
:10099000622F6F7770E0221F2227221F9381892FF9
:1009A000880F822B282F30E0991F9927991F1196C5
:1009B0009C93119721153105A9F541155105610544
:1009C000710511F482E037C082E89FEF13969C9383
:1009D0008E9312979A01AB0167E0220F331F441FD9
:1009E000551F6A95D1F783E08C930DC0220F331FFA
:1009F000441F551F12968D919C9113970197139642
:100A00009C938E931297203080E0380780E048074F
:100A100080E4580758F314962D933D934D935C93BF
:100A2000179708952F3F310579F441155105610558
:100A3000710519F484E08C93089564FF03C081E08C
:100A40008C9312C01C9210C02F57304013963C93C9
:100A50002E93129783E08C9387E0440F551F661FF7
:100A6000771F8A95D1F7706414964D935D936D93BB
:100A70007C931797089528B7246028BF9DBD8CBD2F
:100A800008B602FEFDCF88B7846088BF08954F92F4
:100A90005F926F927F928F929F92AF92BF92CF920E
:100AA000DF92EF92FF920F931F93DF93CF9300D0CB
:100AB000CDB7DEB74C016B01009709F46FC061152B
:100AC000710509F46BC00091B4011091B501FB01EF
:100AD000108281E0898354010894A11CB11CC501D6
:100AE0003E010894611C711CB3010E94B209C5014A
:100AF000BE016E5F7F4F0E94B2098981823008F08B
:100B00004BC08A81882309F047C090EFE92E9FEF00
:100B1000F92EE00EF11EC7010E943B0500E010E037
:100B2000230181E0682E712CC501B2010E94B20937
:100B30008981813061F49301002E02C0220F331F9E
:100B40000A94E2F7F6018081822B80830EC088230D
:100B500061F4C301002E02C0880F991F0A94E2F7C6
:100B60008095F601208128232083C7010E943B0540
:100B70000F5F1F4F08301105B9F6F40182818170B3
:100B800090E0009719F0019739F403C0C7010E9463
:100B90003B05C7010E943B0581E001C080E00F904A
:100BA0000F90CF91DF911F910F91FF90EF90DF9009
:100BB000CF90BF90AF909F908F907F906F905F90FD
:100BC0004F9008950F931F93CF93DF938C01EB0108
:100BD000009771F06115710559F0C801BE010E94BE
:100BE00047058881882311F08332B9F781E001C07D
:100BF00080E0DF91CF911F910F910895AF92BF9246
:100C0000CF92DF92EF92FF920F931F93CF93DF93D8
:100C10007C01062F009711F480E081C0162F11701F
:100C2000862F881F8827881F1827862F82958695EC
:100C3000869581701827862F829586958170182752
:100C4000862F829581701827862F869586958695A2
:100C500081701827862F8695869581701827862F94
:100C6000869581701827BE2CAF2CC70160E00E94CA
:100C70007F098091B4019091B5010E943B05C0E0CD
:100C8000D0E0C02EDD24B6010C2E02C0759567950C
:100C90000A94E2F761708B2D9A2D0E947F09809152
:100CA000B4019091B5010E943B052196C830D10551
:100CB00051F7F70182818695837090E0009721F0CB
:100CC000019769F481E018278B2D9A2D612F0E94DE
:100CD0007F098091B4019091B5010E943B05F70115
:100CE0008281817090E0009719F00197B9F40BC0F0
:100CF0008B2D9A2D61E00E947F098091B401909123
:100D0000B5010E943B058B2D9A2D61E00E947F0961
:100D10008091B4019091B5010E943B0581E0DF9183
:100D2000CF911F910F91FF90EF90DF90CF90BF90E8
:100D3000AF9008950F931F93CF93DF938C01EB0136
:100D4000009769F06115710529F409C0C8010E9476
:100D5000FE05219668816623C9F781E001C080E025
:100D6000DF91CF911F910F9108950F931F93CF9310
:100D7000DF93EC01009711F480E039C088818F7116
:100D8000806C888389818F79806C8983CE010E94F1
:100D9000DC088E010F5F1F4FC8010E94DC088981AB
:100DA0008F798983C8010E94DC088EB582608EBD70
:100DB0002B813C814D815E8160E472E48FE090E0A4
:100DC0000E94141989019A01000F111FC80123E024
:100DD000880F991F2A95E1F764E670E00E94ED18EC
:100DE000601B710B7093B5016093B40181E0DF91DA
:100DF000CF911F910F9108951F920F920FB60F92EE
:100E000011242F933F934F935F936F937F938F930F
:100E10009F93AF93BF93EF93FF930E94870EFF9131
:100E2000EF91BF91AF919F918F917F916F915F9162
:100E30004F913F912F910F900FBE0F901F901895DB
:100E40001F920F920FB60F9211242F933F934F933F
:100E50005F936F937F938F939F93AF93BF93EF9322
:100E6000FF930E94F50AFF91EF91BF91AF919F917F
:100E70008F917F916F915F914F913F912F910F9043
:100E80000FBE0F901F901895EF92FF920F931F9334
:100E9000FC0174817370872F90E08130910579F0A7
:100EA000823091051CF4892B41F005C082309105F8
:100EB00049F0039749F090E039C0089801C0089ABA
:100EC000099804C0089801C0089A099A20813181C4
:100ED0004281538161E0E62EF12C012D112D60E05D
:100EE000E72FF0E008C092E0EE0CFF1C001F111F7E
:100EF0009A95D1F76F5F862F90E08E179F079CF32E
:100F000060E074E284EF90E00E94141920513040B8
:100F100040405040EE0CFF1C001F111FCA01B901D8
:100F2000A80197010E94141920B991E084B383604D
:100F300084BB892F1F910F91FF90EF900895982FF8
:100F400086B7846A86BF06B607FEFDCF81B1887F6B
:100F5000883031F593B984E886BF06B607FEFDCF29
:100F600081B1887F8831E1F463B984E886BF06B631
:100F700007FEFDCF81B1887F883291F443B984E8C0
:100F800086BF06B607FEFDCF81B1887F883241F467
:100F900086B7846986BF06B607FCFDCF81E0089559
:100FA00080E00895982F86B7846A86BF06B607FE4C
:100FB000FDCF81B1887F8830A1F593B984E886BFE1
:100FC00006B607FEFDCF81B1887F883151F563B940
:100FD00084E886BF06B607FEFDCF81B1887F8832E0
:100FE00001F590E030E064E80FC0E40FF51F808168
:100FF00083B966BF06B607FEFDCF81B1887F883210
:1010000011F090E007C09F5FE92FF0E0E217F307CF
:1010100064F391E086B7846986BF06B607FCFDCF0E
:1010200001C090E0892F0895982FFA0186B7846A4D
:1010300086BF06B607FEFDCF81B1887F883009F0F4
:101040003FC093B984E886BF06B607FEFDCF81B1E5
:10105000887F8831A9F563B984E886BF06B607FEA4
:10106000FDCF81B1887F883259F586B7846A86BF03
:1010700006B607FEFDCF81B1887F803111F091E087
:1010800020C0916093B984E886BF06B607FEFDCF05
:1010900081B1887F803561F484E886BF06B607FE9B
:1010A000FDCF83B1808381B190E0887F883509F4DA
:1010B00091E086B7846986BF06B607FCFDCF01C004
:1010C00090E0892F08951F93982F86B7846A86BF72
:1010D00006B607FEFDCF81B1887F883009F066C073
:1010E00093B984E886BF06B607FEFDCF81B1887F3D
:1010F000883109F05BC063B984E886BF06B607FE95
:10110000FDCF81B1887F883209F050C086B7846AEC
:1011100086BF06B607FEFDCF81B1887F803109F01A
:1011200047C0916093B984E886BF06B607FEFDCF3D
:1011300081B1887F8034E1F530E0A22FB0E0BD01BD
:101140006150704014E824EC22C08617970774F4AD
:1011500026BF06B607FEFDCF83B1FA01E30FF11DEE
:10116000808381B1887F803589F018C08617970702
:1011700069F416BF06B607FEFDCF83B1FA01E30F8F
:10118000F11D808381B1887F883541F43F5F832FD3
:1011900090E08A179B07CCF291E001C090E086B7FF
:1011A000846986BF06B607FCFDCF03C090E001C08E
:1011B00091E0892F1F910895DC019C91E92FE37044
:1011C000292F269526952770892F829586958370DD
:1011D000833009F492C0F0E0892F807699F4EE0F05
:1011E000FF1FE958FE4F0190F081E02D81E090E073
:1011F00002C0880F991F2A95E2F780952081282345
:10120000208379C0803239F5EE0FFF1FE958FE4F79
:101210000190F081E02D41E050E0CA0102C0880F4A
:10122000991F2A95E2F780952081282320838C91AD
:10123000E82FE370F0E0EE0FFF1FE158FE4F019042
:10124000F081E02D86958695877002C0440F551F6A
:101250008A95E2F74DC0803409F04FC0EE0FFF1FB2
:10126000E958FE4F0190F081E02D61E070E0CB0184
:1012700002C0880F991F2A95E2F79C018081822B7A
:1012800080832C91822F881F8827881F482F50E049
:101290004115510521F04130510569F517C0E22F84
:1012A000E370F0E0EE0FFF1FE158FE4F0190F08178
:1012B000E02D26952695277002C0660F771F2A9588
:1012C000E2F7962F90958081892314C0E22FE37076
:1012D000F0E0EE0FFF1FE158FE4F0190F081E02D8E
:1012E00026952695277002C0440F551F2A95E2F7D0
:1012F0008081842B808381E0089580E00895FC0143
:101300009081892F8370E82FF0E0292F269526956C
:101310002770613089F4EE0FFF1FE158FE4F0190F6
:10132000F081E02D81E090E002C0880F991F2A959E
:10133000E2F72081282B13C0662391F4EE0FFF1FE4
:10134000E158FE4F0190F081E02D81E090E002C075
:10135000880F991F2A95E2F7809520812823208302
:1013600081E00895FC01DB012081E22FE370F0E0D1
:10137000EE0FFF1FE957FE4F0190F081E02D8081B5
:1013800090E026952695277002C0959587952A9519
:10139000E2F781708C9381E00895FC012081E22FB7
:1013A000E370F0E0EE0FFF1FE158FE4F0190F08177
:1013B000E02D26952695277081E090E002C0880FE9
:1013C000991F2A95E2F720812827208381E008953C
:1013D000813051F0813030F0823041F0833049F07B
:1013E00080E008956ABB03C067BB01C064BB81E0B5
:1013F000089561BB81E00895813051F0813030F073
:10140000823041F0833049F080E008956BBB03C027
:1014100068BB01C065BB81E0089562BB81E00895AF
:10142000FB01813051F0813030F0823041F0833067
:1014300051F080E0089589B303C086B301C083B33F
:10144000808381E0089580B3808381E00895FC016A
:10145000009711F420E03DC0379887B1807E87B9AE
:1014600097B181818695869586958770892B87B9F6
:10147000818186958695817090E0009721F0019793
:1014800021F020E004C0359801C0359A21E086B1F2
:101490009081892B86B98181837090E0813091059C
:1014A00049F08330910549F0892B11F020E007C005
:1014B0003E9801C03E9A3F9802C03E9A3F9A789467
:1014C000349A339A828193819093A5018093A401E9
:1014D000379A369A822F0895FC01009711F480E024
:1014E0000895962F9770990F990F990F8181877C96
:1014F000892B818387B1807E87B987B1862B87B995
:1015000081E00895FC01DB01009711F480E008956B
:101510008181982F9695969596959770292F220FF1
:10152000220F220F877C822B818387B1807E87B92F
:1015300087B1982B97B9369A3699FECF81818695D7
:101540008695982F917080FF03C0913049F40AC0AE
:1015500034B125B1922F80E0830F911D8D939C9320
:1015600081E0089554B125B145B1942F9295969597
:101570009695937080E030E02F73307052955695B9
:1015800056955370250F311D820F931F8D939C9399
:1015900081E00895FB01642F882319F08130F1F474
:1015A00007C034B125B1922F80E0830F911D14C084
:1015B00054B125B145B1942F929596959695937017
:1015C00080E030E02F7330705295569556955370E9
:1015D000250F311D820F931F9183808387B1807EF9
:1015E00087B987B1862B87B90895E091A401F0915E
:1015F000A501309709F009950895FC01009711F4B1
:1016000080E008956E986F9880818295817090E057
:10161000009719F0019741F405C06C9A87B3806B6D
:1016200087BB02C06C98BE9A3DB18081282F237081
:10163000232B2DB92EB18F7090E08470907095950A
:10164000879595958795282B2EB98181813049F012
:10165000813028F0823039F0833051F407C06B9824
:1016600003C06B9804C06B9A6A9802C06B9A6A9A1E
:10167000808182958695817090E0009719F001979E
:1016800021F402C06D9801C06D9A6E9A81E00895B0
:101690008FB9779BFECF089504C08FB9779BFECF9B
:1016A00001960097D1F70895FC01779BFECF8FB18B
:1016B00080830895AC012FEF2F5F779BFECF8FB112
:1016C000FA01E20FF11D80838332B1F708959FEF95
:1016D000899FC001112464E670E00E9401196CBF6B
:1016E000089523B793B79E7F93BF93B79D7F93BF12
:1016F00093B79B7F93BF82BF23BF08B600FEFDCF89
:1017000088B7816088BF0895CF93DF93EC0100977D
:1017100011F480E083C083B78E7F83BF83B78D7F52
:1017200083BF83B78B7F83BF88B7816088BF88B74B
:10173000826088BF8881813071F0813030F08230E2
:10174000D1F0833009F051C039C083B78F7B83BF9C
:1017500083B7877F25C083B7806483BF83B7877FC4
:1017600083BFBB9A8B8132C083B7806183BF83B74D
:10177000806283BF3EC083B78F7B83BF83B788609F
:1017800083BF8A81813071F0813028F0823069F026
:10179000833099F50DC083B78F7E83BF83B78F7D6C
:1017A00083BF2BC083B78061F8CF83B78F7E02C021
:1017B00083B7806183BF83B78062F2CF83B78064D1
:1017C00083BF83B7886083BFBB9A8A81823051F020
:1017D000833051F2882369F483B78F7E83BF83B748
:1017E0008F7DC7CF83B78F7EC1CF813011F083301B
:1017F00021F48D810E94670B02C08E8182BF789494
:101800008F8198859093A7018093A60189B7816005
:1018100089BF83B79C81892B83BF81E0DF91CF9102
:101820000895CF93DF93EC01009711F480E060C03E
:101830008C81882319F0813051F50DC0599A288187
:1018400039814A815B8163E0220F331F441F551F9A
:101850006A95D1F70CC05998288139814A815B81FA
:1018600094E0220F331F441F551F9A95D1F760E073
:1018700074E284EF90E00E941419215030404040FF
:10188000504029B9232F342F452F552720BD8F8154
:10189000823089F0833028F4882359F08130A9F40C
:1018A00005C0833059F0873081F40BC080B5826861
:1018B00080BD52980AC080B58468FACF80B586682A
:1018C000F7CF80B5866880BD529A8E81823019F03C
:1018D000833039F403C080B5806A02C080B5806B64
:1018E00080BD8D81813019F480B5886880BD81E02C
:1018F000DF91CF910895FC01009711F480E00895E5
:101900008781873009F078C08681823021F083306A
:1019100009F072C02EC0962F9170862F881F8827DD
:10192000881F9827862F829586958695817098279F
:10193000862F8295869581709827862F8295817053
:101940009827862F86958695869581709827862F6D
:101950008695869581709827862F86958170982721
:101960005D9BFECF913009F443C0992309F043C039
:1019700041C05D9BFECF862F8295869586958370AC
:1019800090E0262F22952695277030E028273927CA
:1019900021703070862F881F8827881F90E02827A5
:1019A0003927862F82958F7090E08170907028275C
:1019B0003927862F86958695869590E08170907060
:1019C00028273927862F8695869590E0817090701C
:1019D00028273927862F869590E0817090702827D8
:1019E0003927862F90E0817090702817390711F4FD
:1019F000509A01C050986CB95D9BFECF6CB981E0E4
:101A00000895EF92FF921F93CF93DF93EC017B0138
:101A1000009711F480E00DC010E004C0CE010E94D8
:101A20007B0C1F5FF701E10FF11D60816623B1F7A9
:101A300081E0DF91CF911F91FF90EF900895FB011E
:101A4000892B11F480E008955F9BFECF8CB18083D9
:101A500081E00895892B11F480E0089590E005C09D
:101A60005F9BFECF8CB180839F5FFB01E90FF11D6F
:101A700080818823A9F781E008958091B701909132
:101A8000B801A091B901B091BA010196A11DB11D93
:101A90008093B7019093B801A093B901B093BA01B4
:101AA00008950E94DC0808954F925F926F927F9292
:101AB0008F929F92AF92BF92CF92DF92EF92FF925E
:101AC0000F931F93DF93CF93CDB7DEB72B970FB64E
:101AD000F894DEBF0FBECDBF8C017B01198280E080
:101AE00090E0F701E80FF91F10820196853091050B
:101AF000C1F713BE12BE1B82198682E08F831B863C
:101B00001A86CE0103960E94840B1A82F801808106
:101B10008F79806480835801C8010E94DC08C80165
:101B200060E00E947F0988EC90E020E931E0F90153
:101B30003197F1F70197D9F7C50161E00E947F095C
:101B4000F80180818F798083C5010E94DC088E01B5
:101B50000E5F1F4FC501B8010E94B20912BED02E00
:101B6000012F09C012B7C5016D2D702F0E94B20957
:101B7000113F08F098C08A818130A1F3BAC012B732
:101B8000C501B6010E94B209113F08F08CC08A81DC
:101B90008823A9F3B5C012B7C501B6010E94B209E6
:101BA000113F08F080C08A818130A9F36701992430
:101BB00088243E010894611C711C21E0422E512CA6
:101BC0004FC012BEC501B3010E94B20909C092B64E
:101BD000C501B3010E94B209F0EFF91508F470C015
:101BE00089818823A1F312BEC501B3010E94B20905
:101BF00006C092B6C501B3010E94B20982B78981BD
:101C00008130B9F3892D8952813368F4C201002EE5
:101C100002C0880F991F0A94E2F78095F60120818F
:101C2000282320830FC0892D89578B3358F49201C4
:101C3000002E02C0220F331F0A94E2F7F6018081C2
:101C4000822B808301501040FFEF0F3F1F0709F0E8
:101C5000B8CF83940894C11CD11C85E0881619F074
:101C600007E010E0AECFF70183818093BD01828150
:101C70008093BC0181818093BE0180818093BB01F0
:101C800040E08381228130E0280F311D8081280FC0
:101C9000311D8181280F311D848190E0281739077B
:101CA00081F441E00EC08091BD01F70183838091F2
:101CB000BC0182838091BE0181838091BB018083BE
:101CC00040E0842F2B960FB6F894DEBF0FBECDBF39
:101CD000CF91DF911F910F91FF90EF90DF90CF9008
:101CE000BF90AF909F908F907F906F905F904F903C
:101CF000089512BE92E0C92ED12CCC0EDD1E47CF26
:101D000012BE82E0C82ED12CCC0EDD1E4CCF8091AD
:101D1000BF019091C001A091C101B091C201019693
:101D2000A11DB11D8093BF019093C001A093C1017B
:101D3000B093C20108952F923F925F926F927F926B
:101D40008F929F92AF92BF92CF92DF92EF92FF92CB
:101D50000F931F93DF93CF93CDB7DEB72A970FB6BC
:101D6000F894DEBF0FBECDBF7C011B01198213BEEC
:101D700012BE1A82188682E08E8387E89EE09A87D8
:101D80008987CE0102960E94840B87010F5F1F4F47
:101D9000C80161E00E947F0980E58A95F1F7C801DA
:101DA00060E00E947F099E2C8F2CC7018E010F5F7F
:101DB0001F4FB8010E94B20912BEC090BF01D0905F
:101DC000C001E090C101F090C201B02E012F22C0ED
:101DD000892D982D6B2D702F0E94B20922B780910A
:101DE000BF019091C001A091C101B091C2018C19B5
:101DF0009D09AE09BF09BA2FA92F982F8827820FF6
:101E0000911DA11DB11D84589843A140B04010F010
:101E100080E05CC089818823D9F270C0892D982D1B
:101E2000B3010E94B2098091BF019091C001A091BD
:101E3000C101B091C201E816F9060A071B0718F0A4
:101E40008981813059F3892D982DBE016F5F7F4FB5
:101E50000E94B20922B78091BF019091C001A09168
:101E6000C101B091C2018A199B09AC09BD0966275D
:101E7000782F892F9A2F6519710981099109620FAD
:101E8000711D811D911D22E0969587957795679527
:101E90002A95D1F7663FEDE27E07E0E08E07E0E0AD
:101EA0009E0720F065EF7DE280E090E024E531E0E0
:101EB00040E050E00E94C21820E137E240E050E0EC
:101EC0000E941419F1013183208381E02A960FB614
:101ED000F894DEBF0FBECDBFCF91DF911F910F9160
:101EE000FF90EF90DF90CF90BF90AF909F908F903A
:101EF0007F906F905F903F902F90089552B6A09082
:101F0000BF01B090C001C090C101D090C2013E019C
:101F10000894611C711C8FE5E82EF12C012D112D08
:101F2000EA0CFB1C0C1D1D1D8BCF0F931F938C0106
:101F30000E94DC08C80101960E94DC081F910F91E5
:101F400008950F931F93CF93DF938B019C01EA01B8
:101F50004115510539F18BE0DA011D928A95E9F7B7
:101F6000EDB7FEB738970FB6F894FEBF0FBEEDBFC2
:101F70003196ADB7BEB712965C934E93119780E63B
:101F800090E09383828304831583268337830E94A2
:101F9000A3191A86EDB7FEB738960FB6F894FEBFB0
:101FA0000FBEEDBFDF91CF911F910F910895CF9399
:101FB000DF939C01EB016115710539F186E0DB01CE
:101FC0001D928A95E9F700D000D000D0EDB7FEB79A
:101FD0003196ADB7BEB712967C936E93119783E698
:101FE00090E093838283358324830E94A319EDB705
:101FF000FEB736960FB6F894FEBF0FBEEDBFCE010A
:1020000066E670E00E9488191D82DF91CF910895E5
:10201000CF93DF93282FEB016115710541F11882F1
:1020200019821A821B8200D000D000D0EDB7FEB713
:102030003196ADB7BEB712967C936E93119783E637
:1020400090E093838283248315820E94A3198DB725
:102050009EB706960FB6F8949EBF0FBE8DBFCE01F9
:1020600069E670E044E050E00E9493191B82DF9122
:10207000CF9108950F931F93009711F480E00EC045
:102080008C010F5F1F4FC80161E00E947F098AE148
:102090008A95F1F7C80160E00E947F091F910F91B6
:1020A0000895EF92FF920F931F93CF93DF938C01CC
:1020B000F62E009711F480E021C060E00E947F09B5
:1020C000C801029660E00E947F09C0E0D0E0EF2CDA
:1020D000FF24B7010C2E02C0759567950A94E2F7AC
:1020E00061702396C8018C0F9D1F0E947F09229763
:1020F000C830D10571F7C8010E943A10DF91CF9125
:102100001F910F91FF90EF9008950097B9F0623002
:1021100061F0633018F4613089F405C0633039F040
:10212000643061F406C0405805C0405403C04C56AA
:1021300001C04C52642F0E945110089580E0089510
:10214000EF92FF920F931F93CF93DF938C01F62EA4
:10215000009711F480E021C061E00E947F09C8016E
:10216000029660E00E947F09C0E0D0E0EF2CFF24DF
:10217000B7010C2E02C0759567950A94E2F761705D
:102180002396C8018C0F9D1F0E947F092297C8309B
:10219000D10571F7C8010E943A10DF91CF911F91CC
:1021A0000F91FF90EF900895EF92FF921F93CF93BE
:1021B000DF93EC017B01009711F480E00DC081E01A
:1021C00010E004C0CE010E94A0101F5FF701E10FD4
:1021D000F11D60816623B1F7DF91CF911F91FF90D0
:1021E000EF900895EF92FF920F931F938C017B0164
:1021F000642F422F0E948510C801B7010E94D4109D
:102200001F910F91FF90EF900895FF920F931F93EE
:102210008C01F62E642F422F0E948510C8016F2D6D
:102220000E94A0101F910F91FF900895BF92CF922E
:10223000DF92EF92FF920F931F93CF93DF937C0176
:10224000162FB42E6901009711F480E01FC0602F93
:1022500070E0685F7F4F83E0660F771F8A95E1F734
:10226000C7010E945110C0E0D0E0F601EC0FFD1F45
:10227000C70160810E94A0102196C830D105A9F73E
:10228000C701602F412F2B2D0E940511DF91CF91A7
:102290001F910F91FF90EF90DF90CF90BF90089526
:1022A0000F931F93CF93DF93EC01009711F480E01D
:1022B0001EC0062F10E0617003960E947F091595DD
:1022C0000795602F6170CE0104960E947F091595D5
:1022D0000795602F6170CE0105960E947F091595C4
:1022E00007950170CE010696602F0E947F09DF914D
:1022F000CF911F910F9108950F931F93009711F4A1
:1023000080E00EC08C010F5F1F4FC80161E00E948A
:102310007F098AE18A95F1F7C80160E00E947F0990
:102320001F910F9108951F93CF93DF93EC01162F08
:10233000009711F480E019C060E00E947F09CE018F
:10234000029660E00E947F09612F62956F70CE0156
:102350000E945011CE010E947C111F70CE01612F8E
:102360000E945011CE010E947C11DF91CF911F91EC
:1023700008950097B9F0623061F0633018F461306D
:1023800089F405C0633039F0643061F406C0405808
:1023900005C0405403C04C5601C04C52642F0E94EB
:1023A0009311089580E008951F93CF93DF93EC017C
:1023B000162F009711F480E019C061E00E947F0998
:1023C000CE01029660E00E947F09612F62956F70D6
:1023D000CE010E945011CE010E947C111F70CE01CF
:1023E000612F0E945011CE010E947C11DF91CF918C
:1023F0001F910895FF920F931F938C01F62E642F67
:10240000422F0E94B911C8016F2D0E94D4111F9153
:102410000F91FF900895BF92CF92DF92EF92FF92BB
:102420000F931F93CF93DF937C01162FB42E690176
:10243000009711F480E01EC0602F70E0685F7F4F4E
:1024400043E0660F771F4A95E1F70E949311C0E0C1
:10245000D0E0F601EC0FFD1FC70160810E94D4118E
:102460002196C830D105A9F7C701602F412F2B2D28
:102470000E94FA11DF91CF911F910F91FF90EF9081
:10248000DF90CF90BF900895EF92FF921F93CF936C
:10249000DF93EC017B01009711F480E00DC081E037
:1024A00010E004C0CE010E94D4111F5FF701E10FBC
:1024B000F11D60816623B1F7DF91CF911F91FF90ED
:1024C000EF900895EF92FF920F931F938C017B0181
:1024D000642F422F0E94B911C801B7010E94441213
:1024E0001F910F91FF90EF900895AF92BF92CF92FE
:1024F000DF92EF92FF920F931F93CF93DF93EC0144
:10250000009711F480E06DC001960E94DC08CE01B6
:102510000E94DC08CE0102960E94DC088E010D5F4D
:102520001F4FC8010E94DC0874E0E72EF12CEC0E6E
:10253000FD1EC7010E94DC0865E0C62ED12CCC0E22
:10254000DD1EC6010E94DC0856E0A52EB12CAC0EA3
:10255000BD1EC5010E94DC08C80160E00E947F0921
:10256000C70160E00E947F09C60160E00E947F0908
:10257000C50160E00E947F0988EC90E020E931E02D
:10258000F9013197F1F70197D9F7CE0168E30E947D
:10259000511080E29EE40197F1F7CE0168E30E94BA
:1025A000511088E592E00197F1F7CE0168E30E94AF
:1025B0005110CE0161E00E945110CE0162E00E94F4
:1025C0005110CE0166E00E945110CE016CE00E94D5
:1025D0005110CE0168E30E945110CE0160E80E94C4
:1025E0005110DF91CF911F910F91FF90EF90DF90ED
:1025F000CF90BF90AF900895AF92BF92CF92DF92ED
:10260000EF92FF920F931F93CF93DF93EC0100970C
:1026100011F480E06DC001960E94DC08CE010E949A
:10262000DC08CE0102960E94DC088E010D5F1F4F70
:10263000C8010E94DC08A4E0EA2EF12CEC0EFD1E7D
:10264000C7010E94DC08F5E0CF2ED12CCC0EDD1E98
:10265000C6010E94DC08E6E0AE2EB12CAC0EBD1E19
:10266000C5010E94DC08C80160E00E947F09C70123
:1026700060E00E947F09C60160E00E947F09C501F9
:1026800060E00E947F0988EC90E020E931E0F901E8
:102690003197F1F70197D9F7CE0168E30E949311C2
:1026A00080E29EE40197F1F7CE0168E30E94931166
:1026B00088E592E00197F1F7CE0168E30E9493115B
:1026C000CE0161E00E949311CE0162E00E9493115D
:1026D000CE0166E00E949311CE016CE00E9493113E
:1026E000CE0168E20E949311CE0160E80E9493112E
:1026F000DF91CF911F910F91FF90EF90DF90CF90DE
:10270000BF90AF9008952F923F924F925F926F9239
:102710007F928F929F92AF92BF92CF92DF92EF9271
:10272000FF920F931F93DF93CF93CDB7DEB76097E0
:102730000FB6F894DEBF0FBECDBFBBE2EB2EF12C7F
:10274000EC0EFD1E8DA19EA16FA148A50E94B9119E
:102750008E876624CE010796988B8F87F7C090E10D
:10276000691639F48DA19EA162E040E00E94B91182
:102770008E87D8016C91653231F08DA19EA10E94A7
:10278000D4118E87E2C06394E9A5FAA5E60DF11D88
:10279000E081E43661F487010E5F1F4FF70180810D
:1027A0009181BE016F5F7F4F0E94D70F1EC0E3363D
:1027B00059F487010E5F1F4F8DA19EA1D7016C9127
:1027C0000E94D4117801C1C0EC36B9F487010E5FC4
:1027D0001F4FF70160817181882777FD8095982FC1
:1027E000AE014F5F5F4F0E94A10F8DA19EA1BE0160
:1027F0006F5F7F4F0E944412E5CFE63609F0A5C017
:10280000C70104969D878C87D7018D909D90AD90D0
:10281000BC908092DC019092DD01A092DE01B0922A
:10282000DF01C501B4010E944B031B012C017B0198
:102830008C0177241EC0E1E0F0E0EC0FFD1FCE0E0E
:10284000DF1EC801B7012AE030E040E050E00E94FE
:102850003619605DD6016C93C801B7012AE030E0FB
:1028600040E050E00E943619C901DA017C018D0177
:102870007394B7E07B0EC72CDD24E9EF7E0EE114E4
:10288000F10401051105B9F6C201B1010E94ED0282
:102890009B01AC01C501B4010E94950120E034E226
:1028A00044E759E40E94F3010E944B037B018C0131
:1028B00081E090E08C0F9D1FC80ED91ED6011C929E
:1028C0005C016C0119C0C801B7012AE030E040E0AA
:1028D00050E00E943619605DF60161936F01C801F6
:1028E000B7012AE030E040E050E00E943619C9010B
:1028F000DA017C018D017394E114F10401051105E5
:1029000029F08F859889C816D906E9F69EE29F833B
:10291000372D3695E1E0F0E0EC0FFD1FE70DF11DDE
:1029200020E008C0D5019C9180818D935D0190834A
:102930002F5F31972317B0F38DA19EA1BE016F5F6A
:102940007F4F0E944412EC84FD84639409A51AA56C
:10295000060D111DF8018081882321F0FFE1F61595
:1029600008F0FDCE8E8560960FB6F894DEBF0FBEE0
:10297000CDBFCF91DF911F910F91FF90EF90DF902E
:10298000CF90BF90AF909F908F907F906F905F900F
:102990004F903F902F900895BF92CF92DF92EF9289
:1029A000FF920F931F93CF93DF936B017C01EA019A
:1029B000BB241AC08E010B0D111DC701B6012AE000
:1029C00030E040E050E00E943619F8016083B39493
:1029D000C701B6012AE030E040E050E00E9436191D
:1029E000C901DA016C017D01C114D104E104F104D3
:1029F00009F7DF91CF911F910F91FF90EF90DF903A
:102A0000CF90BF900895CF93DF93C0E0D0E00BC08C
:102A10002AE030E040E050E00E943619C901DA01B6
:102A2000BC01CD012196611571058105910581F7E4
:102A30008C2FDF91CF9108951F93162FC4980E9479
:102A4000480B812F0E94480BC49A81E01F91089582
:102A500088E06EE70E941C1587E06EE70E941C1557
:102A600086E06EE70E941C1585E06EE70E941C154B
:102A700084E06EE70E941C1583E06EE70E941C153F
:102A800082E06EE70E941C1581E06EE70E941C1533
:102A900008959F92AF92BF92CF92DF92EF92FF92F2
:102AA0000F931F93CF93DF93942E20E030E04AE7FB
:102AB00054E40E94F3010E944B037B018C015B01F3
:102AC00068010E942815B701C8010E94031510E093
:102AD000C82FD0E037C0112329F49920B1F081E04C
:102AE0006EE423C0133089F4B501C6012AE030E05A
:102AF00040E050E00E943619DC01CB0189569E4F20
:102B0000FC016081606884E010C0B501C6012AE064
:102B100030E040E050E00E9436199B01AC0129569C
:102B20003E4F812F8F5FF90160810E941C15B50116
:102B3000C6012AE030E040E050E00E943619590119
:102B40006A011F5F812F90E08C179D0724F2DF91AF
:102B5000CF911F910F91FF90EF90DF90CF90BF909A
:102B6000AF909F9008950F931F93CF93DF93EC0145
:102B7000009711F190E001C09F5FFE01E90FF11D88
:102B800080818823C9F7092F993008F008E010E008
:102B90000DC0E053EA3008F0EBE0F0E0E956FE4FFC
:102BA000802F811B60810E941C151F5FFE01E10FB9
:102BB000F11DE081EE2369F7DF91CF911F910F9115
:102BC0000895AF92BF92CF92DF92EF92FF920F9350
:102BD0001F93DF93CF930F92CDB7DEB77B018C01AC
:102BE000611571058105910519F40E94281546C0EB
:102BF00097FF35C010950095F094E094E11CF11C0E
:102C0000011D111D81E089832BC08C2D8F5F61E038
:102C10000E941C152FC0D394C801B7012AE030E0F0
:102C200040E050E00E9436199B01AC0129563E4F0E
:102C30008D2DF90160810E941C15C801B7012AE0A1
:102C400030E040E050E00E943619C901DA017C0111
:102C50008D018D2D90E08A159B05ECF20FC0198235
:102C60000E942815C801B7010E940315C82EF981DA
:102C7000F13059F2DD24AC2CBB24EBCF0F90CF9177
:102C8000DF911F910F91FF90EF90DF90CF90BF9059
:102C9000AF90089589E060E00E941C158AE067E02B
:102CA0000E941C158BE067E00E941C158CE061E01F
:102CB0000E941C158FE060E00E941C150E942815E0
:102CC00081E00895FF920F931F93CF93DF93F82E27
:102CD000062FC49810E0C42FD0E007C08F2D0E94AB
:102CE000480B802F0E94480B1F5F812F90E08C17AC
:102CF0009D07A4F3C49A81E0DF91CF911F910F91BA
:102D0000FF90089589E060E042E00E9462168AE048
:102D100067E042E00E9462168BE067E042E00E94BA
:102D200062168CE061E042E00E9462168FE060E093
:102D300042E00E94621681E008956F927F928F9226
:102D40009F92AF92BF92CF92DF92EF92FF920F933A
:102D50001F93CF93DF93E82E3B0149015801C4989C
:102D6000FF24C42EDD24E60121972BC08E2D0E9466
:102D7000480BF4018081813071F40C171D0759F460
:102D80001082F301EC0FFD1FE081F0E0E956FE4FE9
:102D90008081806813C0F5018081813039F4F1E0D1
:102DA000FF1621F4F50110828EE408C0F301EF0D47
:102DB000F11DE081F0E0E956FE4F80810E94480B52
:102DC000F3940F2D10E00C151D0584F2C49A81E0D8
:102DD000DF91CF911F910F91FF90EF90DF90CF90F7
:102DE000BF90AF909F908F907F906F9008957F924B
:102DF0008F929F92AF92BF92CF92DF92EF92FF920B
:102E00000F931F93DF93CF9300D000D00F92CDB7D5
:102E1000DEB76B017C01C901B80119821A8248EA48
:102E200051E00E94CC14C701B60120E030E04AE72F
:102E300054E40E94F3010E944B034EEA51E00E94C9
:102E4000CC1488E06EE742E00E94621687E06EE7ED
:102E500042E00E94621686E06EE742E00E9462163F
:102E600085E06EE742E00E94621684E06EE742E091
:102E70000E94621683E06EE742E00E94621682E0E2
:102E80006EE742E00E94621681E06EE742E00E9437
:102E9000621696E0EE24FF247724739423E0822EBA
:102EA000912C8C0E9D1E82E0A82EB12CAC0EBD1E66
:102EB0006E010894C11CD11CF701E855FE4F8081BA
:102EC000F701E255FE4FE081933011F4798203C09F
:102ED000963009F47A82EC838B83892FB40142E027
:102EE000960185019D830E949D169D8191500894B5
:102EF000E11CF11C992301F70F900F900F900F9098
:102F00000F90CF91DF911F910F91FF90EF90DF9085
:102F1000CF90BF90AF909F908F907F9008950F9328
:102F20001F93DF93CF9300D00F92CDB7DEB78C0104
:102F3000009711F480E03EC080ED60E0AE014F5F8D
:102F40005F4F23E00E94630839812A819B8196FDAF
:102F500002C040E007C09F7B95FD02C041E002C077
:102F60009F7D43E0892F82958F70805DF80180837B
:102F70009F70905D91839AE39283822F82958F70E8
:102F8000805D83832F70205D24839583832F8295BA
:102F90008F70805D86833F70305D378340FF09C04E
:102FA00041FF02C080E501C081E4F80180878DE423
:102FB000818781E00F900F900F90CF91DF911F914B
:102FC0000F910895DF93CF9300D000D0CDB7DEB737
:102FD000E82F562F6D3098F5203288F5483078F577
:102FE000843668F52983842F6AE00E94E1189A8369
:102FF000852F0E94E118282F30E094E0220F331F24
:103000009A95E1F7852F0E94E118922B9B838E2FD2
:103010000E94E118282F30E084E0220F331F8A95A8
:10302000E1F78E2F0E94E118922B9C8380ED63E0E4
:10303000AE014F5F5F4F24E00E94D20701C080E0E5
:103040000F900F900F900F90CF91DF9108950F93F5
:10305000DF93CF9300D00F92CDB7DEB7E82FF62FD6
:10306000522F483108F047C02C3308F044C00C33CD
:1030700008F041C0842F6AE00E94E118282F30E058
:10308000A4E0220F331FAA95E1F7842F0E94E118D4
:10309000922B9B83E13039F4892F80648B83F1304C
:1030A00011F490669B83852F6AE00E94E118282F17
:1030B00030E074E0220F331F7A95E1F7852F0E94EC
:1030C000E118922B9A83802F0E94E118282F30E07C
:1030D00044E0220F331F4A95E1F7802F0E94E11848
:1030E000922B998380ED60E0AE014F5F5F4F23E04C
:1030F0000E94D20701C080E00F900F900F90CF91F7
:10310000DF910F910895DF93CF93CDB7DEB7279767
:103110000FB6F894DEBF0FBECDBFFE01319687E03B
:10312000DF011D928A95E9F780EA96E8A1E0B0E018
:1031300089839A83AB83BC838D8183608D83CF0128
:103140000E94440727960FB6F894DEBF0FBECDBF8E
:10315000CF91DF91089508951F9381E081BB8FE89F
:1031600091E00E94B50611E08FE891E066E971E018
:103170000E944705809196018236B1F782B381277C
:1031800082BBF2CF629FD001739FF001829FE00D5E
:10319000F11D649FE00DF11D929FF00D839FF00DD6
:1031A000749FF00D659FF00D9927729FB00DE11D82
:1031B000F91F639FB00DE11DF91FBD01CF0111245F
:1031C0000895991B79E004C0991F961708F0961B83
:1031D000881F7A95C9F780950895AA1BBB1B51E1FA
:1031E00007C0AA1FBB1FA617B70710F0A61BB70B77
:1031F000881F991F5A95A9F780959095BC01CD011C
:10320000089597FB092E07260AD077FD04D0E5DF45
:1032100006D000201AF4709561957F4F0895F6F757
:10322000909581959F4F0895A1E21A2EAA1BBB1B72
:10323000FD010DC0AA1FBB1FEE1FFF1FA217B30782
:10324000E407F50720F0A21BB30BE40BF50B661F98
:10325000771F881F991F1A9469F76095709580955C
:1032600090959B01AC01BD01CF01089597FB092EFC
:1032700005260ED057FD04D0D7DF0AD0001C38F445
:1032800050954095309521953F4F4F4F5F4F089592
:10329000F6F790958095709561957F4F8F4F9F4F72
:1032A00008952F923F924F925F926F927F928F92EA
:1032B0009F92AF92BF92CF92DF92EF92FF920F93C5
:1032C0001F93CF93DF93CDB7DEB7CA1BDB0B0FB6CF
:1032D000F894DEBF0FBECDBF09942A88398848888C
:1032E0005F846E847D848C849B84AA84B984C88422
:1032F000DF80EE80FD800C811B81AA81B981CE0F19
:10330000D11D0FB6F894DEBF0FBECDBFED010895FD
:10331000FB01DC010D900020E9F7119701900D925F
:103320000020E1F70895FB01DC010D900020E9F792
:1033300011974150504028F0019000200D92C9F79C
:1033400008951C920895AEE0B0E0E9EAF9E10C942A
:103350005F190D891E8986E08C831A8309838FEF9C
:103360009FE79E838D839E01275E3F4FCE0101968E
:103370006F89788DA9010E94C7192F813885020FA6
:10338000131FF80110822E96E4E00C947B19ABE039
:10339000B0E0EDECF9E10C9451193C012B015A011C
:1033A000FC0117821682838181FD03C06FEF7FEFDE
:1033B000C6C19AE0892E1E010894211C311CF3011C
:1033C0002381F20123FD859123FF81912F01882321
:1033D00009F4B2C1853239F423FD859123FF81912F
:1033E0002F01853229F490E0B3010E94BA1BE7CF88
:1033F000982FFF24EE249924FFE1FF15D0F09B3293
:1034000069F09C3228F4903259F0933291F40EC056
:103410009D3249F0903369F441E024C052E0F52A2E
:1034200084E0F82A28C098E0F92A25C0E0E1FE2AC5
:1034300022C0F7FC29C0892F80538A3070F4F6FE31
:1034400005C0989C902C1124980E15C0E89CE02C87
:103450001124E80EF0E2FF2A0EC09E3229F4F6FC99
:103460006BC140E4F42A07C09C3619F450E8F52AF1
:1034700002C0983649F4F20123FD959123FF919102
:103480002F01992309F0B8CF892F8554833018F084
:103490008052833038F444E050E0A40EB51E5FE360
:1034A00059830FC0933631F0933779F0933509F093
:1034B00056C020C0F5018081898342E050E0A40E0F
:1034C000B51E610101E010E012C0F501C080D1809D
:1034D000F6FC03C06FEF7FEF02C0692D70E042E0A1
:1034E00050E0A40EB51EC6010E94AF1B8C015FE721
:1034F000F52214C0F501C080D180F6FC03C06FEF47
:103500007FEF02C0692D70E042E050E0A40EB51ECE
:10351000C6010E94A41B8C0150E8F52AF3FE07C0E7
:103520001AC080E290E0B3010E94BA1BEA948E2D8B
:1035300090E008171907A8F30EC0F601F7FC859173
:10354000F7FE81916F0190E0B3010E94BA1BE11078
:10355000EA94015010400115110579F7EAC094363C
:1035600011F0993669F5F7FE08C0F5012081318127
:103570004281538184E090E00AC0F501808191810D
:103580009C01442737FD4095542F82E090E0A80E1F
:10359000B91E9FE6F92257FF09C050954095309516
:1035A00021953F4F4F4F5F4FE0E8FE2ACA01B90116
:1035B000A1012AE030E00E94E61BD82ED21840C0BC
:1035C000953729F41F2D1F7E2AE030E01DC01F2DE6
:1035D000197F9F3661F0903720F4983509F0ACC020
:1035E0000FC0903739F0983709F0A6C004C028E022
:1035F00030E00AC0106114FD146020E130E004C026
:1036000014FD166020E132E017FF08C0F50160816B
:1036100071818281938144E050E008C0F50180818E
:103620009181BC0180E090E042E050E0A40EB51E24
:10363000A1010E94E61BD82ED2188FE7F82EF122A6
:10364000F6FE0BC05EEFF522D91438F4F4FE07C085
:10365000F2FC05C08FEEF82202C01D2D01C0192D0D
:10366000F4FE0DC0FE01ED0DF11D8081803319F4D3
:1036700099EEF92208C01F5FF2FE05C003C08F2D2E
:10368000867809F01F5F0F2DF3FC14C0F0FE0FC009
:103690001E1510F09D2C0BC09D2C9E0C911A1E2DFA
:1036A00006C080E290E0B3010E94BA1B1F5F1E15A6
:1036B000C0F304C01E1510F4E11A01C0EE2404FF8B
:1036C0000FC080E390E0B3010E94BA1B02FF1DC04F
:1036D00001FD03C088E790E00EC088E590E00BC0D4
:1036E000802F867891F001FF02C08BE201C080E25A
:1036F000F7FC8DE290E0B3010E94BA1B06C080E3A4
:1037000090E0B3010E94BA1B9A94D914C0F3DA94E2
:10371000F101ED0DF11D808190E0B3010E94BA1B13
:10372000DD20A9F706C080E290E0B3010E94BA1B39
:10373000EA94EE20C1F743CEF30166817781CB0195
:103740002B96E2E10C946D19FC01059061507040DC
:103750000110D8F7809590958E0F9F1F0895FC015A
:103760006150704001900110D8F7809590958E0FB0
:103770009F1F08950F931F93CF93DF938C01EB014D
:103780008B8181FF1BC082FF0DC02E813F818C8108
:103790009D812817390764F4E881F9810193F98341
:1037A000E88306C0E885F985802F0995892B31F4D7
:1037B0008E819F8101969F838E8302C00FEF1FEF42
:1037C000C801DF91CF911F910F910895FA01AA27A7
:1037D000283051F1203181F1E8946F936E7F6E5F54
:1037E0007F4F8F4F9F4FAF4FB1E03ED0B4E03CD002
:1037F000670F781F891F9A1FA11D680F791F8A1FE5
:10380000911DA11D6A0F711D811D911DA11D20D04B
:1038100009F468943F912AE0269F11243019305D05
:103820003193DEF6CF010895462F4770405D4193F6
:10383000B3E00FD0C9F7F6CF462F4F70405D4A3343
:1038400018F0495D31FD4052419302D0A9F7EACF0B
:10385000B4E0A6959795879577956795BA95C9F73A
:1038600000976105710508959B01AC010A2E06942D
:103870005795479537952795BA95C9F7620F731FE6
:0C388000841F951FA01D0895F894FFCF31
:10388C002578002569002020002020202020000021
:10389C000000000000000000010202030303030407
:1038AC0004040404040404050505050505050505C3
:1038BC0005050505050505060606060606060606A3
:1038CC00060606060606060606060606060606068C
:1038DC000606060606060607070707070707070773
:1038EC00070707070707070707070707070707075C
:1038FC00070707070707070707070707070707074C
:10390C00070707070707070707070707070707073B
:10391C000707070707070708080808080808080822
:10392C00080808080808080808080808080808080B
:10393C0008080808080808080808080808080808FB
:10394C0008080808080808080808080808080808EB
:10395C0008080808080808080808080808080808DB
:10396C0008080808080808080808080808080808CB
:10397C0008080808080808080808080808080808BB
:10398C0008080808080808080808080808080808AB
:10399C00080808080808083A003700340031003BD2
:1039AC000038003500320039003600330030000199
:1039BC00050580250000787E306D79335B5F707F64
:0439CC007B77014EB6
:00000001FF
